{
  "contractName": "Pausable",
  "abi": [
    {
      "constant": false,
      "inputs": [
        {
          "name": "_newOwner",
          "type": "address"
        }
      ],
      "name": "nominateNewOwner",
      "outputs": [],
      "payable": false,
      "stateMutability": "nonpayable",
      "type": "function"
    },
    {
      "constant": true,
      "inputs": [],
      "name": "getNewOwner",
      "outputs": [
        {
          "name": "",
          "type": "address"
        }
      ],
      "payable": false,
      "stateMutability": "view",
      "type": "function"
    },
    {
      "constant": false,
      "inputs": [],
      "name": "claimOwnership",
      "outputs": [],
      "payable": false,
      "stateMutability": "nonpayable",
      "type": "function"
    },
    {
      "constant": false,
      "inputs": [],
      "name": "renounceOwnership",
      "outputs": [],
      "payable": false,
      "stateMutability": "nonpayable",
      "type": "function"
    },
    {
      "constant": true,
      "inputs": [],
      "name": "getOwner",
      "outputs": [
        {
          "name": "",
          "type": "address"
        }
      ],
      "payable": false,
      "stateMutability": "view",
      "type": "function"
    },
    {
      "inputs": [
        {
          "name": "launchContractPaused",
          "type": "bool"
        }
      ],
      "payable": false,
      "stateMutability": "nonpayable",
      "type": "constructor"
    },
    {
      "anonymous": false,
      "inputs": [
        {
          "indexed": true,
          "name": "contractIsPaused",
          "type": "bool"
        },
        {
          "indexed": true,
          "name": "owner",
          "type": "address"
        }
      ],
      "name": "LogNewPausedState",
      "type": "event"
    },
    {
      "anonymous": false,
      "inputs": [
        {
          "indexed": false,
          "name": "initiatedBy",
          "type": "address"
        }
      ],
      "name": "LogSelfDestruct",
      "type": "event"
    },
    {
      "anonymous": false,
      "inputs": [
        {
          "indexed": true,
          "name": "previousOwner",
          "type": "address"
        },
        {
          "indexed": true,
          "name": "newOwner",
          "type": "address"
        }
      ],
      "name": "LogNominateNewOwner",
      "type": "event"
    },
    {
      "anonymous": false,
      "inputs": [
        {
          "indexed": true,
          "name": "previousOwner",
          "type": "address"
        },
        {
          "indexed": true,
          "name": "newOwner",
          "type": "address"
        }
      ],
      "name": "LogClaimOwnership",
      "type": "event"
    },
    {
      "anonymous": false,
      "inputs": [
        {
          "indexed": true,
          "name": "owner",
          "type": "address"
        }
      ],
      "name": "LogRenounceOwnership",
      "type": "event"
    },
    {
      "constant": true,
      "inputs": [],
      "name": "getIsAlive",
      "outputs": [
        {
          "name": "",
          "type": "bool"
        }
      ],
      "payable": false,
      "stateMutability": "view",
      "type": "function"
    },
    {
      "constant": true,
      "inputs": [],
      "name": "getIsPaused",
      "outputs": [
        {
          "name": "",
          "type": "bool"
        }
      ],
      "payable": false,
      "stateMutability": "view",
      "type": "function"
    },
    {
      "constant": false,
      "inputs": [],
      "name": "pauseContract",
      "outputs": [],
      "payable": false,
      "stateMutability": "nonpayable",
      "type": "function"
    },
    {
      "constant": false,
      "inputs": [],
      "name": "resumeContract",
      "outputs": [],
      "payable": false,
      "stateMutability": "nonpayable",
      "type": "function"
    },
    {
      "constant": false,
      "inputs": [],
      "name": "kill",
      "outputs": [],
      "payable": false,
      "stateMutability": "nonpayable",
      "type": "function"
    }
  ],
  "bytecode": "0x608060405234801561001057600080fd5b50604051602080610f828339810180604052602081101561003057600080fd5b8101908080519060200190929190505050336000806101000a81548173ffffffffffffffffffffffffffffffffffffffff021916908373ffffffffffffffffffffffffffffffffffffffff16021790555060018060146101000a81548160ff02191690831515021790555080600160156101000a81548160ff02191690831515021790555050610ebd806100c56000396000f3fe6080604052600436106100a4576000357c0100000000000000000000000000000000000000000000000000000000900463ffffffff1680631627540c146100a95780632942d6d2146100fa5780633e2fe1491461012957806341c0e1b514610180578063439766ce146101975780634e71e0c8146101ae578063715018a6146101c5578063893d20e8146101dc578063c4bc5da514610233578063f2a6f2151461024a575b600080fd5b3480156100b557600080fd5b506100f8600480360360208110156100cc57600080fd5b81019080803573ffffffffffffffffffffffffffffffffffffffff169060200190929190505050610279565b005b34801561010657600080fd5b5061010f6104a1565b604051808215151515815260200191505060405180910390f35b34801561013557600080fd5b5061013e6104b8565b604051808273ffffffffffffffffffffffffffffffffffffffff1673ffffffffffffffffffffffffffffffffffffffff16815260200191505060405180910390f35b34801561018c57600080fd5b506101956104e2565b005b3480156101a357600080fd5b506101ac6106c5565b005b3480156101ba57600080fd5b506101c361087f565b005b3480156101d157600080fd5b506101da610b2c565b005b3480156101e857600080fd5b506101f1610c97565b604051808273ffffffffffffffffffffffffffffffffffffffff1673ffffffffffffffffffffffffffffffffffffffff16815260200191505060405180910390f35b34801561023f57600080fd5b50610248610cc0565b005b34801561025657600080fd5b5061025f610e7a565b604051808215151515815260200191505060405180910390f35b6000809054906101000a900473ffffffffffffffffffffffffffffffffffffffff1673ffffffffffffffffffffffffffffffffffffffff163373ffffffffffffffffffffffffffffffffffffffff1614151561033d576040517f08c379a000000000000000000000000000000000000000000000000000000000815260040180806020018281038252601d8152602001807f52657374726963746564206163636573732c206f776e6572206f6e6c7900000081525060200191505060405180910390fd5b600073ffffffffffffffffffffffffffffffffffffffff168173ffffffffffffffffffffffffffffffffffffffff16141515156103e2576040517f08c379a000000000000000000000000000000000000000000000000000000000815260040180806020018281038252600f8152602001807f496e76616c69642061646472657373000000000000000000000000000000000081525060200191505060405180910390fd5b8073ffffffffffffffffffffffffffffffffffffffff166000809054906101000a900473ffffffffffffffffffffffffffffffffffffffff1673ffffffffffffffffffffffffffffffffffffffff167f2528e0a1f428ea41edec2813c6f99d74071a23648ee2404e6ec3f653274977d560405160405180910390a380600160006101000a81548173ffffffffffffffffffffffffffffffffffffffff021916908373ffffffffffffffffffffffffffffffffffffffff16021790555050565b6000600160149054906101000a900460ff16905090565b6000600160009054906101000a900473ffffffffffffffffffffffffffffffffffffffff16905090565b600160159054906101000a900460ff161515610566576040517f08c379a00000000000000000000000000000000000000000000000000000000081526004018080602001828103825260138152602001807f436f6e74726163742069732072756e6e696e670000000000000000000000000081525060200191505060405180910390fd5b6000809054906101000a900473ffffffffffffffffffffffffffffffffffffffff1673ffffffffffffffffffffffffffffffffffffffff163373ffffffffffffffffffffffffffffffffffffffff1614151561062a576040517f08c379a000000000000000000000000000000000000000000000000000000000815260040180806020018281038252601d8152602001807f52657374726963746564206163636573732c206f776e6572206f6e6c7900000081525060200191505060405180910390fd5b7f3539ad3787d23871b2da6d880838107ddcf33f310740f0b3bcd12274e5d0226133604051808273ffffffffffffffffffffffffffffffffffffffff1673ffffffffffffffffffffffffffffffffffffffff16815260200191505060405180910390a16000600160146101000a81548160ff0219169083151502179055506000600160156101000a81548160ff021916908315150217905550565b600160159054906101000a900460ff1615151561074a576040517f08c379a00000000000000000000000000000000000000000000000000000000081526004018080602001828103825260128152602001807f436f6e747261637420697320706175736564000000000000000000000000000081525060200191505060405180910390fd5b6000809054906101000a900473ffffffffffffffffffffffffffffffffffffffff1673ffffffffffffffffffffffffffffffffffffffff163373ffffffffffffffffffffffffffffffffffffffff1614151561080e576040517f08c379a000000000000000000000000000000000000000000000000000000000815260040180806020018281038252601d8152602001807f52657374726963746564206163636573732c206f776e6572206f6e6c7900000081525060200191505060405180910390fd5b60018060156101000a81548160ff0219169083151502179055503373ffffffffffffffffffffffffffffffffffffffff16600160159054906101000a900460ff1615157f13e1b4ae9ceaf32aee46a0da7705a06c6e619b7f7ecd790d84d8818c69c27f2760405160405180910390a3565b600073ffffffffffffffffffffffffffffffffffffffff163373ffffffffffffffffffffffffffffffffffffffff1614151515610924576040517f08c379a000000000000000000000000000000000000000000000000000000000815260040180806020018281038252600f8152602001807f496e76616c69642061646472657373000000000000000000000000000000000081525060200191505060405180910390fd5b600160009054906101000a900473ffffffffffffffffffffffffffffffffffffffff1673ffffffffffffffffffffffffffffffffffffffff163373ffffffffffffffffffffffffffffffffffffffff161415156109e9576040517f08c379a000000000000000000000000000000000000000000000000000000000815260040180806020018281038252600d8152602001807f4163636573732064656e6965640000000000000000000000000000000000000081525060200191505060405180910390fd5b600160009054906101000a900473ffffffffffffffffffffffffffffffffffffffff1673ffffffffffffffffffffffffffffffffffffffff166000809054906101000a900473ffffffffffffffffffffffffffffffffffffffff1673ffffffffffffffffffffffffffffffffffffffff167fb40c8fc70079dd581c41e55046fd240c5e9fdcea1258381bfa0af6b9f40c635b60405160405180910390a3600160009054906101000a900473ffffffffffffffffffffffffffffffffffffffff166000806101000a81548173ffffffffffffffffffffffffffffffffffffffff021916908373ffffffffffffffffffffffffffffffffffffffff1602179055506000600160006101000a81548173ffffffffffffffffffffffffffffffffffffffff021916908373ffffffffffffffffffffffffffffffffffffffff160217905550565b6000809054906101000a900473ffffffffffffffffffffffffffffffffffffffff1673ffffffffffffffffffffffffffffffffffffffff163373ffffffffffffffffffffffffffffffffffffffff16141515610bf0576040517f08c379a000000000000000000000000000000000000000000000000000000000815260040180806020018281038252601d8152602001807f52657374726963746564206163636573732c206f776e6572206f6e6c7900000081525060200191505060405180910390fd5b6000809054906101000a900473ffffffffffffffffffffffffffffffffffffffff1673ffffffffffffffffffffffffffffffffffffffff167fd01f48b0207771f59f7d07c98cd13d15aad30f9314c2a232e62ec230dc8990a760405160405180910390a260008060006101000a81548173ffffffffffffffffffffffffffffffffffffffff021916908373ffffffffffffffffffffffffffffffffffffffff160217905550565b60008060009054906101000a900473ffffffffffffffffffffffffffffffffffffffff16905090565b600160159054906101000a900460ff161515610d44576040517f08c379a00000000000000000000000000000000000000000000000000000000081526004018080602001828103825260138152602001807f436f6e74726163742069732072756e6e696e670000000000000000000000000081525060200191505060405180910390fd5b6000809054906101000a900473ffffffffffffffffffffffffffffffffffffffff1673ffffffffffffffffffffffffffffffffffffffff163373ffffffffffffffffffffffffffffffffffffffff16141515610e08576040517f08c379a000000000000000000000000000000000000000000000000000000000815260040180806020018281038252601d8152602001807f52657374726963746564206163636573732c206f776e6572206f6e6c7900000081525060200191505060405180910390fd5b6000600160156101000a81548160ff0219169083151502179055503373ffffffffffffffffffffffffffffffffffffffff16600160159054906101000a900460ff1615157f13e1b4ae9ceaf32aee46a0da7705a06c6e619b7f7ecd790d84d8818c69c27f2760405160405180910390a3565b6000600160159054906101000a900460ff1690509056fea165627a7a72305820e25b65ed86d8f76131ebb69727b642e9f249399d762b958df820484e3fbad23a0029",
  "source": "pragma solidity ^0.5.0;\n\nimport \"./Ownable.sol\";\n\ncontract Pausable is Ownable {\n    bool private isAlive;\n    bool private isPaused;\n\n    event LogNewPausedState(bool indexed contractIsPaused, address indexed owner);\n    event LogSelfDestruct(address initiatedBy);\n    \n    modifier whenAlive() {\n        require (isAlive, \"Contract has been terminated\");\n        _;\n    }\n\n    modifier whenRunning() {\n        require (!isPaused, \"Contract is paused\");\n        _;\n    }\n    \n    modifier whenPaused() {\n        require (isPaused, \"Contract is running\");\n        _;\n    }\n    \n    constructor(bool launchContractPaused) public {\n        isAlive = true;\n        isPaused = launchContractPaused;\n    }\n\n    // Getters\n    function getIsAlive() public view returns (bool) { return isAlive; }\n    function getIsPaused() public view returns (bool) { return isPaused; }\n\n    // Reversible pause/unpause functions\n    function pauseContract() public whenRunning onlyOwner {\n        isPaused = true;\n        emit LogNewPausedState(isPaused, msg.sender);\n    }\n\n    function resumeContract() public whenPaused onlyOwner {\n        isPaused = false;\n        emit LogNewPausedState(isPaused, msg.sender);\n    }\n    \n    // Irreversible pause function; pause is required to discourage accidental execution\n    function kill() public whenPaused onlyOwner {\n        emit LogSelfDestruct(msg.sender);\n        isAlive = false;\n        isPaused = false;\n    }\n}",
  "sourcePath": "/home/vagrant/DAPPS/GitDesktop/Remittance/contracts/Pausable.sol",
  "compiler": {
    "name": "solc",
    "version": "0.5.0+commit.1d4f565a.Emscripten.clang"
  },
  "schemaVersion": "3.0.3",
  "updatedAt": "2019-06-05T10:52:24.045Z",
  "devdoc": {
    "methods": {}
  },
  "userdoc": {
    "methods": {}
  }
}