{
  "contractName": "Remittance",
  "abi": [
    {
      "constant": true,
      "inputs": [
        {
          "name": "",
          "type": "bytes32"
        }
      ],
      "name": "remits",
      "outputs": [
        {
          "name": "sender",
          "type": "address"
        },
        {
          "name": "amount",
          "type": "uint256"
        },
        {
          "name": "expiration",
          "type": "uint256"
        }
      ],
      "payable": false,
      "stateMutability": "view",
      "type": "function"
    },
    {
      "constant": false,
      "inputs": [
        {
          "name": "_newOwner",
          "type": "address"
        }
      ],
      "name": "nominateNewOwner",
      "outputs": [],
      "payable": false,
      "stateMutability": "nonpayable",
      "type": "function"
    },
    {
      "constant": true,
      "inputs": [],
      "name": "getIsAlive",
      "outputs": [
        {
          "name": "",
          "type": "bool"
        }
      ],
      "payable": false,
      "stateMutability": "view",
      "type": "function"
    },
    {
      "constant": true,
      "inputs": [],
      "name": "getNewOwner",
      "outputs": [
        {
          "name": "",
          "type": "address"
        }
      ],
      "payable": false,
      "stateMutability": "view",
      "type": "function"
    },
    {
      "constant": false,
      "inputs": [],
      "name": "kill",
      "outputs": [],
      "payable": false,
      "stateMutability": "nonpayable",
      "type": "function"
    },
    {
      "constant": false,
      "inputs": [],
      "name": "pauseContract",
      "outputs": [],
      "payable": false,
      "stateMutability": "nonpayable",
      "type": "function"
    },
    {
      "constant": true,
      "inputs": [
        {
          "name": "",
          "type": "address"
        }
      ],
      "name": "totalFees",
      "outputs": [
        {
          "name": "",
          "type": "uint256"
        }
      ],
      "payable": false,
      "stateMutability": "view",
      "type": "function"
    },
    {
      "constant": false,
      "inputs": [],
      "name": "claimOwnership",
      "outputs": [],
      "payable": false,
      "stateMutability": "nonpayable",
      "type": "function"
    },
    {
      "constant": false,
      "inputs": [],
      "name": "renounceOwnership",
      "outputs": [],
      "payable": false,
      "stateMutability": "nonpayable",
      "type": "function"
    },
    {
      "constant": true,
      "inputs": [],
      "name": "getOwner",
      "outputs": [
        {
          "name": "",
          "type": "address"
        }
      ],
      "payable": false,
      "stateMutability": "view",
      "type": "function"
    },
    {
      "constant": false,
      "inputs": [],
      "name": "resumeContract",
      "outputs": [],
      "payable": false,
      "stateMutability": "nonpayable",
      "type": "function"
    },
    {
      "constant": true,
      "inputs": [],
      "name": "getIsPaused",
      "outputs": [
        {
          "name": "",
          "type": "bool"
        }
      ],
      "payable": false,
      "stateMutability": "view",
      "type": "function"
    },
    {
      "inputs": [
        {
          "name": "initialFee",
          "type": "uint256"
        },
        {
          "name": "paused",
          "type": "bool"
        }
      ],
      "payable": false,
      "stateMutability": "nonpayable",
      "type": "constructor"
    },
    {
      "anonymous": false,
      "inputs": [
        {
          "indexed": true,
          "name": "sender",
          "type": "address"
        },
        {
          "indexed": false,
          "name": "amount",
          "type": "uint256"
        },
        {
          "indexed": false,
          "name": "expiration",
          "type": "uint256"
        },
        {
          "indexed": false,
          "name": "keyhash",
          "type": "bytes32"
        },
        {
          "indexed": false,
          "name": "currentFee",
          "type": "uint256"
        },
        {
          "indexed": false,
          "name": "totalFeesCurrentOwner",
          "type": "uint256"
        }
      ],
      "name": "LogCreateRemittance",
      "type": "event"
    },
    {
      "anonymous": false,
      "inputs": [
        {
          "indexed": true,
          "name": "receiver",
          "type": "address"
        },
        {
          "indexed": false,
          "name": "amount",
          "type": "uint256"
        }
      ],
      "name": "LogWithdrawal",
      "type": "event"
    },
    {
      "anonymous": false,
      "inputs": [
        {
          "indexed": true,
          "name": "sender",
          "type": "address"
        },
        {
          "indexed": false,
          "name": "refund",
          "type": "uint256"
        }
      ],
      "name": "LogCancelRemittance",
      "type": "event"
    },
    {
      "anonymous": false,
      "inputs": [
        {
          "indexed": true,
          "name": "setter",
          "type": "address"
        },
        {
          "indexed": false,
          "name": "oldFee",
          "type": "uint256"
        },
        {
          "indexed": false,
          "name": "newFee",
          "type": "uint256"
        }
      ],
      "name": "LogSetFee",
      "type": "event"
    },
    {
      "anonymous": false,
      "inputs": [
        {
          "indexed": true,
          "name": "setter",
          "type": "address"
        },
        {
          "indexed": false,
          "name": "minExp",
          "type": "uint256"
        },
        {
          "indexed": false,
          "name": "maxExp",
          "type": "uint256"
        }
      ],
      "name": "LogSetExpiration",
      "type": "event"
    },
    {
      "anonymous": false,
      "inputs": [
        {
          "indexed": true,
          "name": "sender",
          "type": "address"
        },
        {
          "indexed": false,
          "name": "amountWithdrawn",
          "type": "uint256"
        }
      ],
      "name": "LogWithdrawFees",
      "type": "event"
    },
    {
      "anonymous": false,
      "inputs": [
        {
          "indexed": true,
          "name": "contractIsPaused",
          "type": "bool"
        },
        {
          "indexed": true,
          "name": "owner",
          "type": "address"
        }
      ],
      "name": "LogNewPausedState",
      "type": "event"
    },
    {
      "anonymous": false,
      "inputs": [
        {
          "indexed": false,
          "name": "initiatedBy",
          "type": "address"
        }
      ],
      "name": "LogSelfDestruct",
      "type": "event"
    },
    {
      "anonymous": false,
      "inputs": [
        {
          "indexed": true,
          "name": "previousOwner",
          "type": "address"
        },
        {
          "indexed": true,
          "name": "newOwner",
          "type": "address"
        }
      ],
      "name": "LogNominateNewOwner",
      "type": "event"
    },
    {
      "anonymous": false,
      "inputs": [
        {
          "indexed": true,
          "name": "previousOwner",
          "type": "address"
        },
        {
          "indexed": true,
          "name": "newOwner",
          "type": "address"
        }
      ],
      "name": "LogClaimOwnership",
      "type": "event"
    },
    {
      "anonymous": false,
      "inputs": [
        {
          "indexed": true,
          "name": "owner",
          "type": "address"
        }
      ],
      "name": "LogRenounceOwnership",
      "type": "event"
    },
    {
      "constant": true,
      "inputs": [
        {
          "name": "recipient",
          "type": "address"
        },
        {
          "name": "twoFA",
          "type": "uint256"
        }
      ],
      "name": "createKeyHash",
      "outputs": [
        {
          "name": "keyHash",
          "type": "bytes32"
        }
      ],
      "payable": false,
      "stateMutability": "view",
      "type": "function"
    },
    {
      "constant": false,
      "inputs": [
        {
          "name": "keyHash",
          "type": "bytes32"
        },
        {
          "name": "secondsValid",
          "type": "uint256"
        }
      ],
      "name": "createRemittance",
      "outputs": [],
      "payable": true,
      "stateMutability": "payable",
      "type": "function"
    },
    {
      "constant": false,
      "inputs": [
        {
          "name": "twoFA",
          "type": "uint256"
        }
      ],
      "name": "withdrawFunds",
      "outputs": [],
      "payable": false,
      "stateMutability": "nonpayable",
      "type": "function"
    },
    {
      "constant": false,
      "inputs": [
        {
          "name": "keyHash",
          "type": "bytes32"
        }
      ],
      "name": "cancelRemittance",
      "outputs": [],
      "payable": false,
      "stateMutability": "nonpayable",
      "type": "function"
    },
    {
      "constant": false,
      "inputs": [
        {
          "name": "newFee",
          "type": "uint256"
        }
      ],
      "name": "setFee",
      "outputs": [],
      "payable": false,
      "stateMutability": "nonpayable",
      "type": "function"
    },
    {
      "constant": false,
      "inputs": [
        {
          "name": "min",
          "type": "uint256"
        },
        {
          "name": "max",
          "type": "uint256"
        }
      ],
      "name": "setExpiration",
      "outputs": [],
      "payable": false,
      "stateMutability": "nonpayable",
      "type": "function"
    },
    {
      "constant": false,
      "inputs": [],
      "name": "withdrawFees",
      "outputs": [],
      "payable": false,
      "stateMutability": "nonpayable",
      "type": "function"
    }
  ],
  "bytecode": "0x60806040523480156200001157600080fd5b506040516040806200285a833981018060405260408110156200003357600080fd5b81019080805190602001909291908051906020019092919050505080336000806101000a81548173ffffffffffffffffffffffffffffffffffffffff021916908373ffffffffffffffffffffffffffffffffffffffff16021790555060018060146101000a81548160ff02191690831515021790555080600160156101000a81548160ff02191690831515021790555050620000de8262000106640100000000026401000000009004565b620000fe61038462278d006200022d640100000000026401000000009004565b5050620003f8565b6000809054906101000a900473ffffffffffffffffffffffffffffffffffffffff1673ffffffffffffffffffffffffffffffffffffffff163373ffffffffffffffffffffffffffffffffffffffff16141515620001cb576040517f08c379a000000000000000000000000000000000000000000000000000000000815260040180806020018281038252601d8152602001807f52657374726963746564206163636573732c206f776e6572206f6e6c7900000081525060200191505060405180910390fd5b3373ffffffffffffffffffffffffffffffffffffffff167fb9909b657234b4f1de0a24815b36345569f5156c5aa6c3758c0c430f160ea2a260065483604051808381526020018281526020019250505060405180910390a28060068190555050565b6000809054906101000a900473ffffffffffffffffffffffffffffffffffffffff1673ffffffffffffffffffffffffffffffffffffffff163373ffffffffffffffffffffffffffffffffffffffff16141515620002f2576040517f08c379a000000000000000000000000000000000000000000000000000000000815260040180806020018281038252601d8152602001807f52657374726963746564206163636573732c206f776e6572206f6e6c7900000081525060200191505060405180910390fd5b808210151562000390576040517f08c379a00000000000000000000000000000000000000000000000000000000081526004018080602001828103825260248152602001807f4d6178696d756d206d7573742062652067726561746572207468616e206d696e81526020017f696d756d0000000000000000000000000000000000000000000000000000000081525060400191505060405180910390fd5b81600481905550806005819055503373ffffffffffffffffffffffffffffffffffffffff167fdeab8d5331d597ce9da001c092cae1adfedabad26e5b654350d85db87482aed28383604051808381526020018281526020019250505060405180910390a25050565b61245280620004086000396000f3fe608060405260043610610107576000357c0100000000000000000000000000000000000000000000000000000000900463ffffffff16806302a1e0ae1461010c5780630703130514610195578063110316b7146101da578063155dd5ee146102155780631627540c1461025057806320f66475146102a15780632942d6d2146103105780633e2fe1491461033f57806341c0e1b514610396578063439766ce146103ad578063476343ee146103c45780634a793f2d146103db5780634e71e0c81461044057806369fe0e2d14610457578063715018a614610492578063893d20e8146104a9578063910765e314610500578063c4bc5da514610538578063f2a6f2151461054f575b600080fd5b34801561011857600080fd5b506101456004803603602081101561012f57600080fd5b810190808035906020019092919050505061057e565b604051808473ffffffffffffffffffffffffffffffffffffffff1673ffffffffffffffffffffffffffffffffffffffff168152602001838152602001828152602001935050505060405180910390f35b3480156101a157600080fd5b506101d8600480360360408110156101b857600080fd5b8101908080359060200190929190803590602001909291905050506105c8565b005b3480156101e657600080fd5b50610213600480360360208110156101fd57600080fd5b8101908080359060200190929190505050610791565b005b34801561022157600080fd5b5061024e6004803603602081101561023857600080fd5b8101908080359060200190929190505050610a53565b005b34801561025c57600080fd5b5061029f6004803603602081101561027357600080fd5b81019080803573ffffffffffffffffffffffffffffffffffffffff169060200190929190505050610cd9565b005b3480156102ad57600080fd5b506102fa600480360360408110156102c457600080fd5b81019080803573ffffffffffffffffffffffffffffffffffffffff16906020019092919080359060200190929190505050610f01565b6040518082815260200191505060405180910390f35b34801561031c57600080fd5b506103256110d4565b604051808215151515815260200191505060405180910390f35b34801561034b57600080fd5b506103546110eb565b604051808273ffffffffffffffffffffffffffffffffffffffff1673ffffffffffffffffffffffffffffffffffffffff16815260200191505060405180910390f35b3480156103a257600080fd5b506103ab611115565b005b3480156103b957600080fd5b506103c26112f8565b005b3480156103d057600080fd5b506103d96114b2565b005b3480156103e757600080fd5b5061042a600480360360208110156103fe57600080fd5b81019080803573ffffffffffffffffffffffffffffffffffffffff16906020019092919050505061170f565b6040518082815260200191505060405180910390f35b34801561044c57600080fd5b50610455611727565b005b34801561046357600080fd5b506104906004803603602081101561047a57600080fd5b81019080803590602001909291905050506119d4565b005b34801561049e57600080fd5b506104a7611afa565b005b3480156104b557600080fd5b506104be611c65565b604051808273ffffffffffffffffffffffffffffffffffffffff1673ffffffffffffffffffffffffffffffffffffffff16815260200191505060405180910390f35b6105366004803603604081101561051657600080fd5b810190808035906020019092919080359060200190929190505050611c8e565b005b34801561054457600080fd5b5061054d612212565b005b34801561055b57600080fd5b506105646123cc565b604051808215151515815260200191505060405180910390f35b60026020528060005260406000206000915090508060000160009054906101000a900473ffffffffffffffffffffffffffffffffffffffff16908060010154908060020154905083565b6000809054906101000a900473ffffffffffffffffffffffffffffffffffffffff1673ffffffffffffffffffffffffffffffffffffffff163373ffffffffffffffffffffffffffffffffffffffff1614151561068c576040517f08c379a000000000000000000000000000000000000000000000000000000000815260040180806020018281038252601d8152602001807f52657374726963746564206163636573732c206f776e6572206f6e6c7900000081525060200191505060405180910390fd5b8082101515610729576040517f08c379a00000000000000000000000000000000000000000000000000000000081526004018080602001828103825260248152602001807f4d6178696d756d206d7573742062652067726561746572207468616e206d696e81526020017f696d756d0000000000000000000000000000000000000000000000000000000081525060400191505060405180910390fd5b81600481905550806005819055503373ffffffffffffffffffffffffffffffffffffffff167fdeab8d5331d597ce9da001c092cae1adfedabad26e5b654350d85db87482aed28383604051808381526020018281526020019250505060405180910390a25050565b600160159054906101000a900460ff16151515610816576040517f08c379a00000000000000000000000000000000000000000000000000000000081526004018080602001828103825260128152602001807f436f6e747261637420697320706175736564000000000000000000000000000081525060200191505060405180910390fd5b3373ffffffffffffffffffffffffffffffffffffffff166002600083815260200190815260200160002060000160009054906101000a900473ffffffffffffffffffffffffffffffffffffffff1673ffffffffffffffffffffffffffffffffffffffff161415156108ef576040517f08c379a000000000000000000000000000000000000000000000000000000000815260040180806020018281038252601b8152602001807f416363657373207265737472696374656420746f2073656e646572000000000081525060200191505060405180910390fd5b600060026000838152602001908152602001600020600101549050600081111515610982576040517f08c379a00000000000000000000000000000000000000000000000000000000081526004018080602001828103825260128152602001807f496e73756666696369656e742066756e6473000000000000000000000000000081525060200191505060405180910390fd5b60006002600084815260200190815260200160002060010181905550600060026000848152602001908152602001600020600201819055503373ffffffffffffffffffffffffffffffffffffffff167fdb7142eaa89b1172ab6f20349f1bd94edaf5b969fa5cee297c6f96b6e969f63e826040518082815260200191505060405180910390a23373ffffffffffffffffffffffffffffffffffffffff166108fc829081150290604051600060405180830381858888f19350505050158015610a4e573d6000803e3d6000fd5b505050565b600160159054906101000a900460ff16151515610ad8576040517f08c379a00000000000000000000000000000000000000000000000000000000081526004018080602001828103825260128152602001807f436f6e747261637420697320706175736564000000000000000000000000000081525060200191505060405180910390fd5b6000610ae43383610f01565b9050600060026000838152602001908152602001600020600101549050600081111515610b79576040517f08c379a00000000000000000000000000000000000000000000000000000000081526004018080602001828103825260128152602001807f496e73756666696369656e742066756e6473000000000000000000000000000081525060200191505060405180910390fd5b60026000838152602001908152602001600020600201544211151515610c07576040517f08c379a00000000000000000000000000000000000000000000000000000000081526004018080602001828103825260128152602001807f52656d697474616e63652065787069726564000000000000000000000000000081525060200191505060405180910390fd5b60006002600084815260200190815260200160002060010181905550600060026000848152602001908152602001600020600201819055503373ffffffffffffffffffffffffffffffffffffffff167fb4214c8c54fc7442f36d3682f59aebaf09358a4431835b30efb29d52cf9e1e91826040518082815260200191505060405180910390a23373ffffffffffffffffffffffffffffffffffffffff166108fc829081150290604051600060405180830381858888f19350505050158015610cd3573d6000803e3d6000fd5b50505050565b6000809054906101000a900473ffffffffffffffffffffffffffffffffffffffff1673ffffffffffffffffffffffffffffffffffffffff163373ffffffffffffffffffffffffffffffffffffffff16141515610d9d576040517f08c379a000000000000000000000000000000000000000000000000000000000815260040180806020018281038252601d8152602001807f52657374726963746564206163636573732c206f776e6572206f6e6c7900000081525060200191505060405180910390fd5b600073ffffffffffffffffffffffffffffffffffffffff168173ffffffffffffffffffffffffffffffffffffffff1614151515610e42576040517f08c379a000000000000000000000000000000000000000000000000000000000815260040180806020018281038252600f8152602001807f496e76616c69642061646472657373000000000000000000000000000000000081525060200191505060405180910390fd5b8073ffffffffffffffffffffffffffffffffffffffff166000809054906101000a900473ffffffffffffffffffffffffffffffffffffffff1673ffffffffffffffffffffffffffffffffffffffff167f2528e0a1f428ea41edec2813c6f99d74071a23648ee2404e6ec3f653274977d560405160405180910390a380600160006101000a81548173ffffffffffffffffffffffffffffffffffffffff021916908373ffffffffffffffffffffffffffffffffffffffff16021790555050565b60008073ffffffffffffffffffffffffffffffffffffffff168373ffffffffffffffffffffffffffffffffffffffff1614151515610fa7576040517f08c379a00000000000000000000000000000000000000000000000000000000081526004018080602001828103825260168152602001807f56616c696420616464726573732072657175697265640000000000000000000081525060200191505060405180910390fd5b60638211151561101f576040517f08c379a000000000000000000000000000000000000000000000000000000000815260040180806020018281038252601f8152602001807f74776f4641206d757374206265206174206c656173742033206469676974730081525060200191505060405180910390fd5b828230604051602001808473ffffffffffffffffffffffffffffffffffffffff1673ffffffffffffffffffffffffffffffffffffffff166c010000000000000000000000000281526014018381526020018273ffffffffffffffffffffffffffffffffffffffff1673ffffffffffffffffffffffffffffffffffffffff166c01000000000000000000000000028152601401935050505060405160208183030381529060405280519060200120905092915050565b6000600160149054906101000a900460ff16905090565b6000600160009054906101000a900473ffffffffffffffffffffffffffffffffffffffff16905090565b600160159054906101000a900460ff161515611199576040517f08c379a00000000000000000000000000000000000000000000000000000000081526004018080602001828103825260138152602001807f436f6e74726163742069732072756e6e696e670000000000000000000000000081525060200191505060405180910390fd5b6000809054906101000a900473ffffffffffffffffffffffffffffffffffffffff1673ffffffffffffffffffffffffffffffffffffffff163373ffffffffffffffffffffffffffffffffffffffff1614151561125d576040517f08c379a000000000000000000000000000000000000000000000000000000000815260040180806020018281038252601d8152602001807f52657374726963746564206163636573732c206f776e6572206f6e6c7900000081525060200191505060405180910390fd5b7f3539ad3787d23871b2da6d880838107ddcf33f310740f0b3bcd12274e5d0226133604051808273ffffffffffffffffffffffffffffffffffffffff1673ffffffffffffffffffffffffffffffffffffffff16815260200191505060405180910390a16000600160146101000a81548160ff0219169083151502179055506000600160156101000a81548160ff021916908315150217905550565b600160159054906101000a900460ff1615151561137d576040517f08c379a00000000000000000000000000000000000000000000000000000000081526004018080602001828103825260128152602001807f436f6e747261637420697320706175736564000000000000000000000000000081525060200191505060405180910390fd5b6000809054906101000a900473ffffffffffffffffffffffffffffffffffffffff1673ffffffffffffffffffffffffffffffffffffffff163373ffffffffffffffffffffffffffffffffffffffff16141515611441576040517f08c379a000000000000000000000000000000000000000000000000000000000815260040180806020018281038252601d8152602001807f52657374726963746564206163636573732c206f776e6572206f6e6c7900000081525060200191505060405180910390fd5b60018060156101000a81548160ff0219169083151502179055503373ffffffffffffffffffffffffffffffffffffffff16600160159054906101000a900460ff1615157f13e1b4ae9ceaf32aee46a0da7705a06c6e619b7f7ecd790d84d8818c69c27f2760405160405180910390a3565b6000809054906101000a900473ffffffffffffffffffffffffffffffffffffffff1673ffffffffffffffffffffffffffffffffffffffff163373ffffffffffffffffffffffffffffffffffffffff16141515611576576040517f08c379a000000000000000000000000000000000000000000000000000000000815260040180806020018281038252601d8152602001807f52657374726963746564206163636573732c206f776e6572206f6e6c7900000081525060200191505060405180910390fd5b6000600360003373ffffffffffffffffffffffffffffffffffffffff1673ffffffffffffffffffffffffffffffffffffffff168152602001908152602001600020549050600081111515611632576040517f08c379a00000000000000000000000000000000000000000000000000000000081526004018080602001828103825260128152602001807f496e73756666696369656e742066756e6473000000000000000000000000000081525060200191505060405180910390fd5b6000600360003373ffffffffffffffffffffffffffffffffffffffff1673ffffffffffffffffffffffffffffffffffffffff168152602001908152602001600020819055503373ffffffffffffffffffffffffffffffffffffffff167fbe641c3ffc44b2d6c184f023fa4ed7bda4b6ffa71e03b3c98ae0c776da1f17e7826040518082815260200191505060405180910390a23373ffffffffffffffffffffffffffffffffffffffff166108fc829081150290604051600060405180830381858888f1935050505015801561170b573d6000803e3d6000fd5b5050565b60036020528060005260406000206000915090505481565b600073ffffffffffffffffffffffffffffffffffffffff163373ffffffffffffffffffffffffffffffffffffffff16141515156117cc576040517f08c379a000000000000000000000000000000000000000000000000000000000815260040180806020018281038252600f8152602001807f496e76616c69642061646472657373000000000000000000000000000000000081525060200191505060405180910390fd5b600160009054906101000a900473ffffffffffffffffffffffffffffffffffffffff1673ffffffffffffffffffffffffffffffffffffffff163373ffffffffffffffffffffffffffffffffffffffff16141515611891576040517f08c379a000000000000000000000000000000000000000000000000000000000815260040180806020018281038252600d8152602001807f4163636573732064656e6965640000000000000000000000000000000000000081525060200191505060405180910390fd5b600160009054906101000a900473ffffffffffffffffffffffffffffffffffffffff1673ffffffffffffffffffffffffffffffffffffffff166000809054906101000a900473ffffffffffffffffffffffffffffffffffffffff1673ffffffffffffffffffffffffffffffffffffffff167fb40c8fc70079dd581c41e55046fd240c5e9fdcea1258381bfa0af6b9f40c635b60405160405180910390a3600160009054906101000a900473ffffffffffffffffffffffffffffffffffffffff166000806101000a81548173ffffffffffffffffffffffffffffffffffffffff021916908373ffffffffffffffffffffffffffffffffffffffff1602179055506000600160006101000a81548173ffffffffffffffffffffffffffffffffffffffff021916908373ffffffffffffffffffffffffffffffffffffffff160217905550565b6000809054906101000a900473ffffffffffffffffffffffffffffffffffffffff1673ffffffffffffffffffffffffffffffffffffffff163373ffffffffffffffffffffffffffffffffffffffff16141515611a98576040517f08c379a000000000000000000000000000000000000000000000000000000000815260040180806020018281038252601d8152602001807f52657374726963746564206163636573732c206f776e6572206f6e6c7900000081525060200191505060405180910390fd5b3373ffffffffffffffffffffffffffffffffffffffff167fb9909b657234b4f1de0a24815b36345569f5156c5aa6c3758c0c430f160ea2a260065483604051808381526020018281526020019250505060405180910390a28060068190555050565b6000809054906101000a900473ffffffffffffffffffffffffffffffffffffffff1673ffffffffffffffffffffffffffffffffffffffff163373ffffffffffffffffffffffffffffffffffffffff16141515611bbe576040517f08c379a000000000000000000000000000000000000000000000000000000000815260040180806020018281038252601d8152602001807f52657374726963746564206163636573732c206f776e6572206f6e6c7900000081525060200191505060405180910390fd5b6000809054906101000a900473ffffffffffffffffffffffffffffffffffffffff1673ffffffffffffffffffffffffffffffffffffffff167fd01f48b0207771f59f7d07c98cd13d15aad30f9314c2a232e62ec230dc8990a760405160405180910390a260008060006101000a81548173ffffffffffffffffffffffffffffffffffffffff021916908373ffffffffffffffffffffffffffffffffffffffff160217905550565b60008060009054906101000a900473ffffffffffffffffffffffffffffffffffffffff16905090565b600160159054906101000a900460ff16151515611d13576040517f08c379a00000000000000000000000000000000000000000000000000000000081526004018080602001828103825260128152602001807f436f6e747261637420697320706175736564000000000000000000000000000081525060200191505060405180910390fd5b600160149054906101000a900460ff161515611d97576040517f08c379a000000000000000000000000000000000000000000000000000000000815260040180806020018281038252601c8152602001807f436f6e747261637420686173206265656e207465726d696e617465640000000081525060200191505060405180910390fd5b60065434111515611e10576040517f08c379a00000000000000000000000000000000000000000000000000000000081526004018080602001828103825260168152602001807f4d696e696d756d20616d6f756e74206e6f74206d65740000000000000000000081525060200191505060405180910390fd5b600073ffffffffffffffffffffffffffffffffffffffff166002600084815260200190815260200160002060000160009054906101000a900473ffffffffffffffffffffffffffffffffffffffff1673ffffffffffffffffffffffffffffffffffffffff16141515611eea576040517f08c379a00000000000000000000000000000000000000000000000000000000081526004018080602001828103825260148152602001807f4475706c69636174652072656d697474616e636500000000000000000000000081525060200191505060405180910390fd5b6005548111151515611f64576040517f08c379a000000000000000000000000000000000000000000000000000000000815260040180806020018281038252601b8152602001807f4d6178696d756d2065787069726174696f6e206578636565646564000000000081525060200191505060405180910390fd5b6004548110151515611fde576040517f08c379a000000000000000000000000000000000000000000000000000000000815260040180806020018281038252601a8152602001807f4d696e696d756d2065787069726174696f6e206e6f74206d657400000000000081525060200191505060405180910390fd5b6000611ff5600654346123e390919063ffffffff16565b905061205260065460036000612009611c65565b73ffffffffffffffffffffffffffffffffffffffff1673ffffffffffffffffffffffffffffffffffffffff1681526020019081526020016000205461240590919063ffffffff16565b6003600061205e611c65565b73ffffffffffffffffffffffffffffffffffffffff1673ffffffffffffffffffffffffffffffffffffffff1681526020019081526020016000208190555060006120b1834261240590919063ffffffff16565b90506060604051908101604052803373ffffffffffffffffffffffffffffffffffffffff168152602001838152602001828152506002600086815260200190815260200160002060008201518160000160006101000a81548173ffffffffffffffffffffffffffffffffffffffff021916908373ffffffffffffffffffffffffffffffffffffffff16021790555060208201518160010155604082015181600201559050503373ffffffffffffffffffffffffffffffffffffffff167f7d4bc82f0febda1e1b01227b765f582e5e97c26a82b1bffc588a3cc8d6eadef4838387600654600360006121a0611c65565b73ffffffffffffffffffffffffffffffffffffffff1673ffffffffffffffffffffffffffffffffffffffff16815260200190815260200160002054604051808681526020018581526020018481526020018381526020018281526020019550505050505060405180910390a250505050565b600160159054906101000a900460ff161515612296576040517f08c379a00000000000000000000000000000000000000000000000000000000081526004018080602001828103825260138152602001807f436f6e74726163742069732072756e6e696e670000000000000000000000000081525060200191505060405180910390fd5b6000809054906101000a900473ffffffffffffffffffffffffffffffffffffffff1673ffffffffffffffffffffffffffffffffffffffff163373ffffffffffffffffffffffffffffffffffffffff1614151561235a576040517f08c379a000000000000000000000000000000000000000000000000000000000815260040180806020018281038252601d8152602001807f52657374726963746564206163636573732c206f776e6572206f6e6c7900000081525060200191505060405180910390fd5b6000600160156101000a81548160ff0219169083151502179055503373ffffffffffffffffffffffffffffffffffffffff16600160159054906101000a900460ff1615157f13e1b4ae9ceaf32aee46a0da7705a06c6e619b7f7ecd790d84d8818c69c27f2760405160405180910390a3565b6000600160159054906101000a900460ff16905090565b60008282111515156123f457600080fd5b600082840390508091505092915050565b600080828401905083811015151561241c57600080fd5b809150509291505056fea165627a7a72305820396e13ff07f544fe9a51ac13deb7dbe3940ec471a286aec64316fc1d49586cb20029",
  "source": "pragma solidity ^0.5.0;\n\nimport \"./SafeMath.sol\";\nimport \"./Pausable.sol\";\n\ncontract Remittance is Pausable {\n    using SafeMath for uint;    \n\n    struct Remit {\n        address sender;\n        uint amount;\n        uint expiration;\n    }\n    \n    // keyhash => Remit struct\n    mapping (bytes32 => Remit) public remits;\n    // Current Owner => totalFees\n    mapping (address => uint) public totalFees;\n    \n    uint minExpiration; \n    uint maxExpiration;\n    uint fee;\n\n    event LogCreateRemittance(address indexed sender, uint amount, uint expiration, bytes32 keyhash, uint currentFee, uint totalFeesCurrentOwner);\n    event LogWithdrawal(address indexed receiver, uint amount);\n    event LogCancelRemittance(address indexed sender, uint refund);\n    event LogSetFee(address indexed setter, uint oldFee, uint newFee);\n    event LogSetExpiration(address indexed setter, uint minExp, uint maxExp);\n    event LogWithdrawFees(address indexed sender, uint amountWithdrawn);\n    \n    constructor (uint initialFee, bool paused) Pausable(paused) public {\n        setFee(initialFee);\n        setExpiration(15 minutes, 30 days);\n    }\n    // Generated off-chain\n    function createKeyHash (address recipient, uint twoFA) view public returns (bytes32 keyHash){\n        require(recipient != address(0), \"Valid address required\");\n        require(twoFA > 99, \"twoFA must be at least 3 digits\");\n        return(keccak256(abi.encodePacked(recipient, twoFA, address(this))));\n    }\n\n    function createRemittance (bytes32 keyHash, uint secondsValid) public payable whenRunning whenAlive {\n        require(msg.value > fee, \"Minimum amount not met\");\n        require(remits[keyHash].sender == address(0), \"Duplicate remittance\");\n        require(secondsValid <= maxExpiration, \"Maximum expiration exceeded\");\n        require(secondsValid >= minExpiration, \"Minimum expiration not met\");\n        uint amount = msg.value.sub(fee);\n        totalFees[getOwner()] = totalFees[getOwner()].add(fee);\n        uint expiration = now.add(secondsValid);\n        remits[keyHash] = Remit({\n            sender: msg.sender,\n            amount: amount,\n            expiration: expiration\n        });\n        emit LogCreateRemittance(msg.sender, amount, expiration, keyHash, fee, totalFees[getOwner()]);\n    }\n\n    function withdrawFunds(uint twoFA) public whenRunning {\n        bytes32 keyHash = createKeyHash(msg.sender, twoFA);\n        uint amountDue = remits[keyHash].amount;\n        require(amountDue > 0, \"Insufficient funds\");\n        require(now <= remits[keyHash].expiration, \"Remittance expired\");\n        remits[keyHash].amount = 0;\n        remits[keyHash].expiration = 0;\n        emit LogWithdrawal(msg.sender, amountDue);\n        msg.sender.transfer(amountDue);\n    }\n\n    function cancelRemittance(bytes32 keyHash) public whenRunning {\n        require(remits[keyHash].sender == msg.sender, \"Access restricted to sender\");\n\n        uint amountDue = remits[keyHash].amount;\n        require(amountDue > 0, \"Insufficient funds\");\n        remits[keyHash].amount = 0;\n        remits[keyHash].expiration = 0;\n        emit LogCancelRemittance(msg.sender, amountDue);\n        msg.sender.transfer(amountDue);\n    }\n    \n    function setFee(uint newFee) public onlyOwner {\n        emit LogSetFee(msg.sender, fee, newFee);\n        fee = newFee;\n    }\n    \n    function setExpiration(uint min, uint max) public onlyOwner {\n        require(min < max, \"Maximum must be greater than minimum\");\n        minExpiration = min;\n        maxExpiration = max;\n        emit LogSetExpiration(msg.sender, min, max);\n    }\n\n    function withdrawFees() public onlyOwner {\n        uint amountDue = totalFees[msg.sender];\n        require(amountDue > 0, \"Insufficient funds\");\n        totalFees[msg.sender] = 0;\n        emit LogWithdrawFees(msg.sender, amountDue);\n        msg.sender.transfer(amountDue);\n    }\n}",
  "sourcePath": "/home/vagrant/DAPPS/GitDesktop/Remittance/contracts/Remittance.sol",
  "compiler": {
    "name": "solc",
    "version": "0.5.0+commit.1d4f565a.Emscripten.clang"
  },
  "schemaVersion": "3.0.3",
  "updatedAt": "2019-06-05T10:52:24.081Z",
  "devdoc": {
    "methods": {}
  },
  "userdoc": {
    "methods": {}
  }
}