{
  "contractName": "Remittance",
  "abi": [
    {
      "constant": true,
      "inputs": [
        {
          "name": "",
          "type": "bytes32"
        }
      ],
      "name": "remits",
      "outputs": [
        {
          "name": "sender",
          "type": "address"
        },
        {
          "name": "amount",
          "type": "uint256"
        },
        {
          "name": "expiration",
          "type": "uint256"
        }
      ],
      "payable": false,
      "stateMutability": "view",
      "type": "function"
    },
    {
      "constant": true,
      "inputs": [],
      "name": "getPausedState",
      "outputs": [
        {
          "name": "",
          "type": "bool"
        }
      ],
      "payable": false,
      "stateMutability": "view",
      "type": "function"
    },
    {
      "constant": false,
      "inputs": [],
      "name": "kill",
      "outputs": [],
      "payable": false,
      "stateMutability": "nonpayable",
      "type": "function"
    },
    {
      "constant": false,
      "inputs": [],
      "name": "renounceOwnership",
      "outputs": [],
      "payable": false,
      "stateMutability": "nonpayable",
      "type": "function"
    },
    {
      "constant": true,
      "inputs": [],
      "name": "getOwner",
      "outputs": [
        {
          "name": "",
          "type": "address"
        }
      ],
      "payable": false,
      "stateMutability": "view",
      "type": "function"
    },
    {
      "constant": false,
      "inputs": [],
      "name": "contractPaused",
      "outputs": [],
      "payable": false,
      "stateMutability": "nonpayable",
      "type": "function"
    },
    {
      "constant": false,
      "inputs": [],
      "name": "contractResume",
      "outputs": [],
      "payable": false,
      "stateMutability": "nonpayable",
      "type": "function"
    },
    {
      "constant": false,
      "inputs": [
        {
          "name": "newOwner",
          "type": "address"
        }
      ],
      "name": "transferOwnership",
      "outputs": [],
      "payable": false,
      "stateMutability": "nonpayable",
      "type": "function"
    },
    {
      "inputs": [
        {
          "name": "initialFee",
          "type": "uint256"
        },
        {
          "name": "paused",
          "type": "bool"
        }
      ],
      "payable": false,
      "stateMutability": "nonpayable",
      "type": "constructor"
    },
    {
      "anonymous": false,
      "inputs": [
        {
          "indexed": true,
          "name": "sender",
          "type": "address"
        },
        {
          "indexed": false,
          "name": "amount",
          "type": "uint256"
        },
        {
          "indexed": false,
          "name": "expiration",
          "type": "uint256"
        }
      ],
      "name": "LogCreateRemittance",
      "type": "event"
    },
    {
      "anonymous": false,
      "inputs": [
        {
          "indexed": true,
          "name": "receiver",
          "type": "address"
        },
        {
          "indexed": false,
          "name": "amount",
          "type": "uint256"
        }
      ],
      "name": "LogWithdrawal",
      "type": "event"
    },
    {
      "anonymous": false,
      "inputs": [
        {
          "indexed": true,
          "name": "sender",
          "type": "address"
        },
        {
          "indexed": false,
          "name": "refund",
          "type": "uint256"
        }
      ],
      "name": "LogCancelRemittance",
      "type": "event"
    },
    {
      "anonymous": false,
      "inputs": [
        {
          "indexed": true,
          "name": "setter",
          "type": "address"
        },
        {
          "indexed": false,
          "name": "newFee",
          "type": "uint256"
        }
      ],
      "name": "LogSetFee",
      "type": "event"
    },
    {
      "anonymous": false,
      "inputs": [
        {
          "indexed": true,
          "name": "setter",
          "type": "address"
        },
        {
          "indexed": false,
          "name": "minExp",
          "type": "uint256"
        },
        {
          "indexed": false,
          "name": "maxExp",
          "type": "uint256"
        }
      ],
      "name": "LogSetExpiration",
      "type": "event"
    },
    {
      "anonymous": false,
      "inputs": [
        {
          "indexed": true,
          "name": "sender",
          "type": "address"
        },
        {
          "indexed": false,
          "name": "amountWithdrawn",
          "type": "uint256"
        }
      ],
      "name": "LogWithdrawFees",
      "type": "event"
    },
    {
      "anonymous": false,
      "inputs": [
        {
          "indexed": false,
          "name": "isAlive",
          "type": "bool"
        },
        {
          "indexed": true,
          "name": "owner",
          "type": "address"
        }
      ],
      "name": "LogKillRemittanceContract",
      "type": "event"
    },
    {
      "anonymous": false,
      "inputs": [
        {
          "indexed": true,
          "name": "contractIsPaused",
          "type": "bool"
        },
        {
          "indexed": true,
          "name": "owner",
          "type": "address"
        }
      ],
      "name": "LogNewPausedState",
      "type": "event"
    },
    {
      "anonymous": false,
      "inputs": [
        {
          "indexed": false,
          "name": "initiatedBy",
          "type": "address"
        }
      ],
      "name": "LogSelfDestruct",
      "type": "event"
    },
    {
      "anonymous": false,
      "inputs": [
        {
          "indexed": true,
          "name": "previousOwner",
          "type": "address"
        },
        {
          "indexed": true,
          "name": "newOwner",
          "type": "address"
        }
      ],
      "name": "LogTransferOwnership",
      "type": "event"
    },
    {
      "constant": true,
      "inputs": [
        {
          "name": "recipient",
          "type": "address"
        },
        {
          "name": "twoFA",
          "type": "uint256"
        }
      ],
      "name": "createKeyHash",
      "outputs": [
        {
          "name": "keyHash",
          "type": "bytes32"
        }
      ],
      "payable": false,
      "stateMutability": "view",
      "type": "function"
    },
    {
      "constant": false,
      "inputs": [
        {
          "name": "keyHash",
          "type": "bytes32"
        },
        {
          "name": "secondsValid",
          "type": "uint256"
        }
      ],
      "name": "createRemittance",
      "outputs": [],
      "payable": true,
      "stateMutability": "payable",
      "type": "function"
    },
    {
      "constant": false,
      "inputs": [
        {
          "name": "twoFA",
          "type": "uint256"
        }
      ],
      "name": "withdrawFunds",
      "outputs": [],
      "payable": false,
      "stateMutability": "nonpayable",
      "type": "function"
    },
    {
      "constant": false,
      "inputs": [
        {
          "name": "keyHash",
          "type": "bytes32"
        }
      ],
      "name": "cancelRemittance",
      "outputs": [],
      "payable": false,
      "stateMutability": "nonpayable",
      "type": "function"
    },
    {
      "constant": false,
      "inputs": [
        {
          "name": "newFee",
          "type": "uint256"
        }
      ],
      "name": "setFee",
      "outputs": [],
      "payable": false,
      "stateMutability": "nonpayable",
      "type": "function"
    },
    {
      "constant": false,
      "inputs": [
        {
          "name": "min",
          "type": "uint256"
        },
        {
          "name": "max",
          "type": "uint256"
        }
      ],
      "name": "setExpiration",
      "outputs": [],
      "payable": false,
      "stateMutability": "nonpayable",
      "type": "function"
    },
    {
      "constant": false,
      "inputs": [],
      "name": "withdrawFees",
      "outputs": [],
      "payable": false,
      "stateMutability": "nonpayable",
      "type": "function"
    },
    {
      "constant": false,
      "inputs": [],
      "name": "killRemittanceContract",
      "outputs": [],
      "payable": false,
      "stateMutability": "nonpayable",
      "type": "function"
    }
  ],
  "bytecode": "0x608060405234801561001057600080fd5b506040516040806121a78339810180604052604081101561003057600080fd5b81019080805190602001909291908051906020019092919050505080336000806101000a81548173ffffffffffffffffffffffffffffffffffffffff021916908373ffffffffffffffffffffffffffffffffffffffff16021790555080600060146101000a81548160ff021916908315150217905550506001600660006101000a81548160ff0219169083151502179055506100da826100f4640100000000026401000000009004565b61038460028190555062278d006003819055505050610210565b6000809054906101000a900473ffffffffffffffffffffffffffffffffffffffff1673ffffffffffffffffffffffffffffffffffffffff163373ffffffffffffffffffffffffffffffffffffffff161415156101b8576040517f08c379a000000000000000000000000000000000000000000000000000000000815260040180806020018281038252601d8152602001807f52657374726963746564206163636573732c206f776e6572206f6e6c7900000081525060200191505060405180910390fd5b806004819055503373ffffffffffffffffffffffffffffffffffffffff167f0dfa4a59b9b2fb743712590fa7a5685f57ad4751fc083e1339d4ee46ca025434826040518082815260200191505060405180910390a250565b611f888061021f6000396000f3fe6080604052600436106100e6576000357c0100000000000000000000000000000000000000000000000000000000900463ffffffff16806302a1e0ae146100eb5780630703130514610174578063110316b7146101b9578063155dd5ee146101f45780631c0de0511461022f57806320f664751461025e57806341c0e1b5146102cd57806343cc6bd3146102e4578063476343ee146102fb57806369fe0e2d14610312578063715018a61461034d578063893d20e8146103645780638a67456a146103bb578063910765e3146103d2578063e6aa8ebc1461040a578063f2fde38b14610421575b600080fd5b3480156100f757600080fd5b506101246004803603602081101561010e57600080fd5b8101908080359060200190929190505050610472565b604051808473ffffffffffffffffffffffffffffffffffffffff1673ffffffffffffffffffffffffffffffffffffffff168152602001838152602001828152602001935050505060405180910390f35b34801561018057600080fd5b506101b76004803603604081101561019757600080fd5b8101908080359060200190929190803590602001909291905050506104bc565b005b3480156101c557600080fd5b506101f2600480360360208110156101dc57600080fd5b81019080803590602001909291905050506105e8565b005b34801561020057600080fd5b5061022d6004803603602081101561021757600080fd5b8101908080359060200190929190505050610937565b005b34801561023b57600080fd5b50610244610c60565b604051808215151515815260200191505060405180910390f35b34801561026a57600080fd5b506102b76004803603604081101561028157600080fd5b81019080803573ffffffffffffffffffffffffffffffffffffffff16906020019092919080359060200190929190505050610c76565b6040518082815260200191505060405180910390f35b3480156102d957600080fd5b506102e2610d2d565b005b3480156102f057600080fd5b506102f9610ef1565b005b34801561030757600080fd5b50610310611025565b005b34801561031e57600080fd5b5061034b6004803603602081101561033557600080fd5b810190808035906020019092919050505061120a565b005b34801561035957600080fd5b50610362611326565b005b34801561037057600080fd5b5061037961142d565b604051808273ffffffffffffffffffffffffffffffffffffffff1673ffffffffffffffffffffffffffffffffffffffff16815260200191505060405180910390f35b3480156103c757600080fd5b506103d0611456565b005b610408600480360360408110156103e857600080fd5b810190808035906020019092919080359060200190929190505050611611565b005b34801561041657600080fd5b5061041f611b39565b005b34801561042d57600080fd5b506104706004803603602081101561044457600080fd5b81019080803573ffffffffffffffffffffffffffffffffffffffff169060200190929190505050611cf2565b005b60016020528060005260406000206000915090508060000160009054906101000a900473ffffffffffffffffffffffffffffffffffffffff16908060010154908060020154905083565b6000809054906101000a900473ffffffffffffffffffffffffffffffffffffffff1673ffffffffffffffffffffffffffffffffffffffff163373ffffffffffffffffffffffffffffffffffffffff16141515610580576040517f08c379a000000000000000000000000000000000000000000000000000000000815260040180806020018281038252601d8152602001807f52657374726963746564206163636573732c206f776e6572206f6e6c7900000081525060200191505060405180910390fd5b81600281905550806003819055503373ffffffffffffffffffffffffffffffffffffffff167fdeab8d5331d597ce9da001c092cae1adfedabad26e5b654350d85db87482aed28383604051808381526020018281526020019250505060405180910390a25050565b600060149054906101000a900460ff1615151561066d576040517f08c379a00000000000000000000000000000000000000000000000000000000081526004018080602001828103825260128152602001807f436f6e747261637420697320706175736564000000000000000000000000000081525060200191505060405180910390fd5b3373ffffffffffffffffffffffffffffffffffffffff166001600083815260200190815260200160002060000160009054906101000a900473ffffffffffffffffffffffffffffffffffffffff1673ffffffffffffffffffffffffffffffffffffffff16141515610746576040517f08c379a000000000000000000000000000000000000000000000000000000000815260040180806020018281038252601b8152602001807f416363657373207265737472696374656420746f2073656e646572000000000081525060200191505060405180910390fd5b6001600082815260200190815260200160002060020154421115156107d3576040517f08c379a00000000000000000000000000000000000000000000000000000000081526004018080602001828103825260198152602001807f44697361626c656420756e74696c2065787069726174696f6e0000000000000081525060200191505060405180910390fd5b600060016000838152602001908152602001600020600101549050600081111515610866576040517f08c379a00000000000000000000000000000000000000000000000000000000081526004018080602001828103825260128152602001807f496e73756666696369656e742066756e6473000000000000000000000000000081525060200191505060405180910390fd5b60006001600084815260200190815260200160002060010181905550600060016000848152602001908152602001600020600201819055503373ffffffffffffffffffffffffffffffffffffffff167fdb7142eaa89b1172ab6f20349f1bd94edaf5b969fa5cee297c6f96b6e969f63e826040518082815260200191505060405180910390a23373ffffffffffffffffffffffffffffffffffffffff166108fc829081150290604051600060405180830381858888f19350505050158015610932573d6000803e3d6000fd5b505050565b600060149054906101000a900460ff161515156109bc576040517f08c379a00000000000000000000000000000000000000000000000000000000081526004018080602001828103825260128152602001807f436f6e747261637420697320706175736564000000000000000000000000000081525060200191505060405180910390fd5b6000338230604051602001808473ffffffffffffffffffffffffffffffffffffffff1673ffffffffffffffffffffffffffffffffffffffff166c010000000000000000000000000281526014018381526020018273ffffffffffffffffffffffffffffffffffffffff1673ffffffffffffffffffffffffffffffffffffffff166c01000000000000000000000000028152601401935050505060405160208183030381529060405280519060200120905060016000828152602001908152602001600020600201544211151515610afb576040517f08c379a00000000000000000000000000000000000000000000000000000000081526004018080602001828103825260128152602001807f52656d697474616e63652065787069726564000000000000000000000000000081525060200191505060405180910390fd5b600060016000838152602001908152602001600020600101549050600081111515610b8e576040517f08c379a00000000000000000000000000000000000000000000000000000000081526004018080602001828103825260128152602001807f496e73756666696369656e742066756e6473000000000000000000000000000081525060200191505060405180910390fd5b60006001600084815260200190815260200160002060010181905550600060016000848152602001908152602001600020600201819055503373ffffffffffffffffffffffffffffffffffffffff167fb4214c8c54fc7442f36d3682f59aebaf09358a4431835b30efb29d52cf9e1e91826040518082815260200191505060405180910390a23373ffffffffffffffffffffffffffffffffffffffff166108fc829081150290604051600060405180830381858888f19350505050158015610c5a573d6000803e3d6000fd5b50505050565b60008060149054906101000a900460ff16905090565b6000828230604051602001808473ffffffffffffffffffffffffffffffffffffffff1673ffffffffffffffffffffffffffffffffffffffff166c010000000000000000000000000281526014018381526020018273ffffffffffffffffffffffffffffffffffffffff1673ffffffffffffffffffffffffffffffffffffffff166c01000000000000000000000000028152601401935050505060405160208183030381529060405280519060200120905092915050565b600060149054906101000a900460ff161515610db1576040517f08c379a00000000000000000000000000000000000000000000000000000000081526004018080602001828103825260138152602001807f436f6e74726163742069732072756e6e696e670000000000000000000000000081525060200191505060405180910390fd5b6000809054906101000a900473ffffffffffffffffffffffffffffffffffffffff1673ffffffffffffffffffffffffffffffffffffffff163373ffffffffffffffffffffffffffffffffffffffff16141515610e75576040517f08c379a000000000000000000000000000000000000000000000000000000000815260040180806020018281038252601d8152602001807f52657374726963746564206163636573732c206f776e6572206f6e6c7900000081525060200191505060405180910390fd5b7f3539ad3787d23871b2da6d880838107ddcf33f310740f0b3bcd12274e5d0226133604051808273ffffffffffffffffffffffffffffffffffffffff1673ffffffffffffffffffffffffffffffffffffffff16815260200191505060405180910390a13373ffffffffffffffffffffffffffffffffffffffff16ff5b6000809054906101000a900473ffffffffffffffffffffffffffffffffffffffff1673ffffffffffffffffffffffffffffffffffffffff163373ffffffffffffffffffffffffffffffffffffffff16141515610fb5576040517f08c379a000000000000000000000000000000000000000000000000000000000815260040180806020018281038252601d8152602001807f52657374726963746564206163636573732c206f776e6572206f6e6c7900000081525060200191505060405180910390fd5b3373ffffffffffffffffffffffffffffffffffffffff167f302ed9d938188ca8234057a56d45d07db746a10b67e8dfe3d2661cc2fb97e8246000604051808215151515815260200191505060405180910390a26000600660006101000a81548160ff021916908315150217905550565b6000809054906101000a900473ffffffffffffffffffffffffffffffffffffffff1673ffffffffffffffffffffffffffffffffffffffff163373ffffffffffffffffffffffffffffffffffffffff161415156110e9576040517f08c379a000000000000000000000000000000000000000000000000000000000815260040180806020018281038252601d8152602001807f52657374726963746564206163636573732c206f776e6572206f6e6c7900000081525060200191505060405180910390fd5b6000600554111515611163576040517f08c379a00000000000000000000000000000000000000000000000000000000081526004018080602001828103825260128152602001807f496e73756666696369656e742066756e6473000000000000000000000000000081525060200191505060405180910390fd5b6000600554905060006005819055503373ffffffffffffffffffffffffffffffffffffffff167fbe641c3ffc44b2d6c184f023fa4ed7bda4b6ffa71e03b3c98ae0c776da1f17e7826040518082815260200191505060405180910390a23373ffffffffffffffffffffffffffffffffffffffff166108fc829081150290604051600060405180830381858888f19350505050158015611206573d6000803e3d6000fd5b5050565b6000809054906101000a900473ffffffffffffffffffffffffffffffffffffffff1673ffffffffffffffffffffffffffffffffffffffff163373ffffffffffffffffffffffffffffffffffffffff161415156112ce576040517f08c379a000000000000000000000000000000000000000000000000000000000815260040180806020018281038252601d8152602001807f52657374726963746564206163636573732c206f776e6572206f6e6c7900000081525060200191505060405180910390fd5b806004819055503373ffffffffffffffffffffffffffffffffffffffff167f0dfa4a59b9b2fb743712590fa7a5685f57ad4751fc083e1339d4ee46ca025434826040518082815260200191505060405180910390a250565b6000809054906101000a900473ffffffffffffffffffffffffffffffffffffffff1673ffffffffffffffffffffffffffffffffffffffff163373ffffffffffffffffffffffffffffffffffffffff161415156113ea576040517f08c379a000000000000000000000000000000000000000000000000000000000815260040180806020018281038252601d8152602001807f52657374726963746564206163636573732c206f776e6572206f6e6c7900000081525060200191505060405180910390fd5b60008060006101000a81548173ffffffffffffffffffffffffffffffffffffffff021916908373ffffffffffffffffffffffffffffffffffffffff160217905550565b60008060009054906101000a900473ffffffffffffffffffffffffffffffffffffffff16905090565b600060149054906101000a900460ff161515156114db576040517f08c379a00000000000000000000000000000000000000000000000000000000081526004018080602001828103825260128152602001807f436f6e747261637420697320706175736564000000000000000000000000000081525060200191505060405180910390fd5b6000809054906101000a900473ffffffffffffffffffffffffffffffffffffffff1673ffffffffffffffffffffffffffffffffffffffff163373ffffffffffffffffffffffffffffffffffffffff1614151561159f576040517f08c379a000000000000000000000000000000000000000000000000000000000815260040180806020018281038252601d8152602001807f52657374726963746564206163636573732c206f776e6572206f6e6c7900000081525060200191505060405180910390fd5b6001600060146101000a81548160ff0219169083151502179055503373ffffffffffffffffffffffffffffffffffffffff16600060149054906101000a900460ff1615157f13e1b4ae9ceaf32aee46a0da7705a06c6e619b7f7ecd790d84d8818c69c27f2760405160405180910390a3565b600060149054906101000a900460ff16151515611696576040517f08c379a00000000000000000000000000000000000000000000000000000000081526004018080602001828103825260128152602001807f436f6e747261637420697320706175736564000000000000000000000000000081525060200191505060405180910390fd5b600660009054906101000a900460ff16151561171a576040517f08c379a000000000000000000000000000000000000000000000000000000000815260040180806020018281038252601c8152602001807f436f6e747261637420686173206265656e207465726d696e617465640000000081525060200191505060405180910390fd5b60045434111515611793576040517f08c379a000000000000000000000000000000000000000000000000000000000815260040180806020018281038252601a8152602001807f4d696e756d756d2073656e642076616c7565206e6f74206d657400000000000081525060200191505060405180910390fd5b3373ffffffffffffffffffffffffffffffffffffffff166001600084815260200190815260200160002060000160009054906101000a900473ffffffffffffffffffffffffffffffffffffffff1673ffffffffffffffffffffffffffffffffffffffff161415151561186d576040517f08c379a000000000000000000000000000000000000000000000000000000000815260040180806020018281038252600f8152602001807f4475706c69636174652074776f4641000000000000000000000000000000000081525060200191505060405180910390fd5b600060016000848152602001908152602001600020600101541415156118fb576040517f08c379a00000000000000000000000000000000000000000000000000000000081526004018080602001828103825260148152602001807f4475706c69636174652072656d697474616e636500000000000000000000000081525060200191505060405180910390fd5b60035481101515611974576040517f08c379a000000000000000000000000000000000000000000000000000000000815260040180806020018281038252601b8152602001807f4d6178696d756d2065787069726174696f6e206578636565646564000000000081525060200191505060405180910390fd5b600254811115156119ed576040517f08c379a000000000000000000000000000000000000000000000000000000000815260040180806020018281038252601a8152602001807f4d696e696d756d2065787069726174696f6e206e6f74206d657400000000000081525060200191505060405180910390fd5b6000611a0460045434611f1990919063ffffffff16565b9050611a1d600454600554611f3b90919063ffffffff16565b6005819055506000611a388342611f3b90919063ffffffff16565b90506060604051908101604052803373ffffffffffffffffffffffffffffffffffffffff168152602001838152602001828152506001600086815260200190815260200160002060008201518160000160006101000a81548173ffffffffffffffffffffffffffffffffffffffff021916908373ffffffffffffffffffffffffffffffffffffffff16021790555060208201518160010155604082015181600201559050503373ffffffffffffffffffffffffffffffffffffffff167fc841961c2376bcae7f8b789258909ffad08a8c95b2292dc5c0e9fb06c26fc6008383604051808381526020018281526020019250505060405180910390a250505050565b600060149054906101000a900460ff161515611bbd576040517f08c379a00000000000000000000000000000000000000000000000000000000081526004018080602001828103825260138152602001807f436f6e74726163742069732072756e6e696e670000000000000000000000000081525060200191505060405180910390fd5b6000809054906101000a900473ffffffffffffffffffffffffffffffffffffffff1673ffffffffffffffffffffffffffffffffffffffff163373ffffffffffffffffffffffffffffffffffffffff16141515611c81576040517f08c379a000000000000000000000000000000000000000000000000000000000815260040180806020018281038252601d8152602001807f52657374726963746564206163636573732c206f776e6572206f6e6c7900000081525060200191505060405180910390fd5b60008060146101000a81548160ff0219169083151502179055503373ffffffffffffffffffffffffffffffffffffffff16600060149054906101000a900460ff1615157f13e1b4ae9ceaf32aee46a0da7705a06c6e619b7f7ecd790d84d8818c69c27f2760405160405180910390a3565b6000809054906101000a900473ffffffffffffffffffffffffffffffffffffffff1673ffffffffffffffffffffffffffffffffffffffff163373ffffffffffffffffffffffffffffffffffffffff16141515611db6576040517f08c379a000000000000000000000000000000000000000000000000000000000815260040180806020018281038252601d8152602001807f52657374726963746564206163636573732c206f776e6572206f6e6c7900000081525060200191505060405180910390fd5b600073ffffffffffffffffffffffffffffffffffffffff168173ffffffffffffffffffffffffffffffffffffffff1614151515611e5b576040517f08c379a000000000000000000000000000000000000000000000000000000000815260040180806020018281038252600f8152602001807f496e76616c69642061646472657373000000000000000000000000000000000081525060200191505060405180910390fd5b8073ffffffffffffffffffffffffffffffffffffffff166000809054906101000a900473ffffffffffffffffffffffffffffffffffffffff1673ffffffffffffffffffffffffffffffffffffffff167f64b29884510e05067b4ed2199d3b82647dd4377a1a9b5d8c0bd88bbe23ec4dc660405160405180910390a3806000806101000a81548173ffffffffffffffffffffffffffffffffffffffff021916908373ffffffffffffffffffffffffffffffffffffffff16021790555050565b6000828211151515611f2a57600080fd5b600082840390508091505092915050565b6000808284019050838110151515611f5257600080fd5b809150509291505056fea165627a7a7230582074e9e6bc0997486eb2564165a35bb11553fcd8c4415374a131656a57929a4cef0029",
  "source": "pragma solidity ^0.5.0;\n\nimport \"./SafeMath.sol\";\nimport \"./Pausable.sol\";\n\ncontract Remittance is Pausable {\n    using SafeMath for uint;    \n\n    struct Remit {\n        address sender;\n        uint amount;\n        uint expiration;\n    }\n    // keyhash => Remit struct\n    mapping (bytes32 => Remit) public remits;\n    uint minExpiration; \n    uint maxExpiration;\n    uint fee;\n    uint totalFees;\n    bool alive;\n\n    event LogCreateRemittance(address indexed sender, uint amount, uint expiration);\n    event LogWithdrawal(address indexed receiver, uint amount);\n    event LogCancelRemittance(address indexed sender, uint refund);\n    event LogSetFee(address indexed setter, uint newFee);\n    event LogSetExpiration(address indexed setter, uint minExp, uint maxExp);\n    event LogWithdrawFees(address indexed sender, uint amountWithdrawn);\n    event LogKillRemittanceContract(bool isAlive, address indexed owner);\n\n    modifier isAlive() {\n        require (alive, \"Contract has been terminated\");\n        _;\n    }\n    \n    constructor (uint initialFee, bool paused) Pausable(paused) public {\n        alive = true;\n        setFee(initialFee);\n        minExpiration = 15 minutes;\n        maxExpiration = 30 days;\n    }\n    // Generated off-chain\n    function createKeyHash (address recipient, uint twoFA) view external returns (bytes32 keyHash){\n        return(keccak256(abi.encodePacked(recipient, twoFA, address(this))));\n    }\n\n    function createRemittance (bytes32 keyHash, uint secondsValid) public payable isRunning isAlive {\n        require(msg.value > fee, \"Minumum send value not met\");\n        require(remits[keyHash].sender != msg.sender, \"Duplicate twoFA\");\n        require(remits[keyHash].amount == 0, \"Duplicate remittance\");\n        require(secondsValid < maxExpiration, \"Maximum expiration exceeded\");\n        require(secondsValid > minExpiration, \"Minimum expiration not met\");\n        uint amount = msg.value.sub(fee);\n        totalFees = totalFees.add(fee);\n        uint expiration = now.add(secondsValid);\n        remits[keyHash] = Remit({\n            sender: msg.sender,\n            amount: amount,\n            expiration: expiration\n        });\n        emit LogCreateRemittance(msg.sender, amount, expiration);\n    }\n\n    function withdrawFunds(uint twoFA) public isRunning {\n        bytes32 keyHash = keccak256(abi.encodePacked(msg.sender, twoFA, address(this)));\n        require(now <= remits[keyHash].expiration, \"Remittance expired\");\n        uint amountDue = remits[keyHash].amount;\n        require(amountDue > 0, \"Insufficient funds\");\n        remits[keyHash].amount = 0;\n        remits[keyHash].expiration = 0;\n        emit LogWithdrawal(msg.sender, amountDue);\n        msg.sender.transfer(amountDue);\n    }\n\n    function cancelRemittance(bytes32 keyHash) public isRunning {\n        require(remits[keyHash].sender == msg.sender, \"Access restricted to sender\");\n        require(now > remits[keyHash].expiration, \"Disabled until expiration\");\n        uint amountDue = remits[keyHash].amount;\n        require(amountDue > 0, \"Insufficient funds\");\n        remits[keyHash].amount = 0;\n        remits[keyHash].expiration = 0;\n        emit LogCancelRemittance(msg.sender, amountDue);\n        msg.sender.transfer(amountDue);\n    }\n\n    function setFee(uint newFee) public onlyOwner {\n        fee = newFee;\n        emit LogSetFee(msg.sender, newFee);\n    }\n    \n    function setExpiration(uint min, uint max) public onlyOwner {\n        minExpiration = min;\n        maxExpiration = max;\n        emit LogSetExpiration(msg.sender, min, max);\n    }\n\n    function withdrawFees() public onlyOwner {\n        require(totalFees > 0, \"Insufficient funds\");\n        uint amountDue = totalFees;\n        totalFees = 0;\n        emit LogWithdrawFees(msg.sender, amountDue);\n        msg.sender.transfer(amountDue);\n    }\n    \n    function killRemittanceContract() public onlyOwner {\n        emit LogKillRemittanceContract(false, msg.sender);\n        alive = false;\n    }\n}",
  "sourcePath": "/home/vagrant/DAPPS/Remittance/contracts/Remittance.sol",
  "compiler": {
    "name": "solc",
    "version": "0.5.0+commit.1d4f565a.Emscripten.clang"
  },
  "schemaVersion": "3.0.3",
  "updatedAt": "2019-05-23T13:31:18.437Z",
  "devdoc": {
    "methods": {}
  },
  "userdoc": {
    "methods": {}
  }
}