{
  "contractName": "Remittance",
  "abi": [
    {
      "constant": true,
      "inputs": [
        {
          "name": "",
          "type": "address"
        }
      ],
      "name": "balances",
      "outputs": [
        {
          "name": "",
          "type": "uint256"
        }
      ],
      "payable": false,
      "stateMutability": "view",
      "type": "function"
    },
    {
      "constant": false,
      "inputs": [
        {
          "name": "newState",
          "type": "bool"
        }
      ],
      "name": "contractPaused",
      "outputs": [],
      "payable": false,
      "stateMutability": "nonpayable",
      "type": "function"
    },
    {
      "inputs": [
        {
          "name": "remittanceKey",
          "type": "uint256"
        },
        {
          "name": "recipientKey",
          "type": "uint256"
        },
        {
          "name": "_remittanceAddress",
          "type": "address"
        }
      ],
      "payable": true,
      "stateMutability": "payable",
      "type": "constructor"
    },
    {
      "anonymous": false,
      "inputs": [
        {
          "indexed": false,
          "name": "sender",
          "type": "address"
        },
        {
          "indexed": false,
          "name": "amount",
          "type": "uint256"
        },
        {
          "indexed": false,
          "name": "receiver",
          "type": "address"
        }
      ],
      "name": "LogRemittanceCreated",
      "type": "event"
    },
    {
      "anonymous": false,
      "inputs": [
        {
          "indexed": true,
          "name": "receiver",
          "type": "address"
        },
        {
          "indexed": false,
          "name": "amount",
          "type": "uint256"
        }
      ],
      "name": "LogWithdrawal",
      "type": "event"
    },
    {
      "anonymous": false,
      "inputs": [
        {
          "indexed": false,
          "name": "owner",
          "type": "address"
        },
        {
          "indexed": false,
          "name": "refund",
          "type": "uint256"
        }
      ],
      "name": "LogKillExecuted",
      "type": "event"
    },
    {
      "anonymous": false,
      "inputs": [
        {
          "indexed": false,
          "name": "newState",
          "type": "bool"
        },
        {
          "indexed": false,
          "name": "pausedBy",
          "type": "address"
        }
      ],
      "name": "ContractPausedState",
      "type": "event"
    },
    {
      "constant": false,
      "inputs": [
        {
          "name": "remittanceKey",
          "type": "uint256"
        },
        {
          "name": "recipientKey",
          "type": "uint256"
        }
      ],
      "name": "withdrawFunds",
      "outputs": [],
      "payable": false,
      "stateMutability": "nonpayable",
      "type": "function"
    },
    {
      "constant": false,
      "inputs": [],
      "name": "kill",
      "outputs": [],
      "payable": false,
      "stateMutability": "nonpayable",
      "type": "function"
    }
  ],
  "bytecode": "0x6080604052604051606080610da48339810180604052606081101561002357600080fd5b81019080805190602001909291908051906020019092919080519060200190929190505050336000806101000a81548173ffffffffffffffffffffffffffffffffffffffff021916908373ffffffffffffffffffffffffffffffffffffffff1602179055506000809054906101000a900473ffffffffffffffffffffffffffffffffffffffff1673ffffffffffffffffffffffffffffffffffffffff163373ffffffffffffffffffffffffffffffffffffffff1614151561014c576040517f08c379a000000000000000000000000000000000000000000000000000000000815260040180806020018281038252601d8152602001807f52657374726963746564206163636573732c206f776e6572206f6e6c7900000081525060200191505060405180910390fd5b600073ffffffffffffffffffffffffffffffffffffffff168173ffffffffffffffffffffffffffffffffffffffff16141515156101f1576040517f08c379a000000000000000000000000000000000000000000000000000000000815260040180806020018281038252600f8152602001807f496e76616c69642061646472657373000000000000000000000000000000000081525060200191505060405180910390fd5b80600260006101000a81548173ffffffffffffffffffffffffffffffffffffffff021916908373ffffffffffffffffffffffffffffffffffffffff16021790555082828234604051602001808581526020018481526020018373ffffffffffffffffffffffffffffffffffffffff1673ffffffffffffffffffffffffffffffffffffffff166c01000000000000000000000000028152601401828152602001945050505050604051602081830303815290604052805190602001206003819055503460016000600260009054906101000a900473ffffffffffffffffffffffffffffffffffffffff1673ffffffffffffffffffffffffffffffffffffffff1673ffffffffffffffffffffffffffffffffffffffff168152602001908152602001600020819055507f51d9246fda6340330d84d23715793d57dcba6a60a8a8d82c4721c1db18a2edfc3334600260009054906101000a900473ffffffffffffffffffffffffffffffffffffffff16604051808473ffffffffffffffffffffffffffffffffffffffff1673ffffffffffffffffffffffffffffffffffffffff1681526020018381526020018273ffffffffffffffffffffffffffffffffffffffff1673ffffffffffffffffffffffffffffffffffffffff168152602001935050505060405180910390a15050506109b9806103eb6000396000f3fe608060405260043610610062576000357c0100000000000000000000000000000000000000000000000000000000900463ffffffff16806327e235e31461006757806341c0e1b5146100cc578063e5253105146100e3578063f378156a14610128575b600080fd5b34801561007357600080fd5b506100b66004803603602081101561008a57600080fd5b81019080803573ffffffffffffffffffffffffffffffffffffffff169060200190929190505050610165565b6040518082815260200191505060405180910390f35b3480156100d857600080fd5b506100e161017d565b005b3480156100ef57600080fd5b506101266004803603604081101561010657600080fd5b81019080803590602001909291908035906020019092919050505061043b565b005b34801561013457600080fd5b506101636004803603602081101561014b57600080fd5b8101908080351515906020019092919050505061078c565b005b60016020528060005260406000206000915090505481565b6000809054906101000a900473ffffffffffffffffffffffffffffffffffffffff1673ffffffffffffffffffffffffffffffffffffffff163373ffffffffffffffffffffffffffffffffffffffff16141515610241576040517f08c379a000000000000000000000000000000000000000000000000000000000815260040180806020018281038252601d8152602001807f52657374726963746564206163636573732c206f776e6572206f6e6c7900000081525060200191505060405180910390fd5b600060016000600260009054906101000a900473ffffffffffffffffffffffffffffffffffffffff1673ffffffffffffffffffffffffffffffffffffffff1673ffffffffffffffffffffffffffffffffffffffff16815260200190815260200160002054905060008111151561031f576040517f08c379a00000000000000000000000000000000000000000000000000000000081526004018080602001828103825260128152602001807f4e6f2066756e647320617661696c61626c65000000000000000000000000000081525060200191505060405180910390fd5b600060016000600260009054906101000a900473ffffffffffffffffffffffffffffffffffffffff1673ffffffffffffffffffffffffffffffffffffffff1673ffffffffffffffffffffffffffffffffffffffff168152602001908152602001600020819055507f3fc378208fa77cb733622e00231b1e5ee24fc347a53884c41cf056a7f28c22f63382604051808373ffffffffffffffffffffffffffffffffffffffff1673ffffffffffffffffffffffffffffffffffffffff1681526020018281526020019250505060405180910390a13373ffffffffffffffffffffffffffffffffffffffff166108fc829081150290604051600060405180830381858888f19350505050158015610437573d6000803e3d6000fd5b5050565b600060149054906101000a900460ff161515156104c0576040517f08c379a00000000000000000000000000000000000000000000000000000000081526004018080602001828103825260128152602001807f436f6e747261637420697320706175736564000000000000000000000000000081525060200191505060405180910390fd5b600354828233600160003373ffffffffffffffffffffffffffffffffffffffff1673ffffffffffffffffffffffffffffffffffffffff16815260200190815260200160002054604051602001808581526020018481526020018373ffffffffffffffffffffffffffffffffffffffff1673ffffffffffffffffffffffffffffffffffffffff166c01000000000000000000000000028152601401828152602001945050505050604051602081830303815290604052805190602001201415156105f1576040517f08c379a000000000000000000000000000000000000000000000000000000000815260040180806020018281038252600d8152602001807f4163636573732064656e6965640000000000000000000000000000000000000081525060200191505060405180910390fd5b6000600160003373ffffffffffffffffffffffffffffffffffffffff1673ffffffffffffffffffffffffffffffffffffffff1681526020019081526020016000205490506000811115156106ad576040517f08c379a00000000000000000000000000000000000000000000000000000000081526004018080602001828103825260128152602001807f496e73756666696369656e742066756e6473000000000000000000000000000081525060200191505060405180910390fd5b6000600160003373ffffffffffffffffffffffffffffffffffffffff1673ffffffffffffffffffffffffffffffffffffffff168152602001908152602001600020819055503373ffffffffffffffffffffffffffffffffffffffff167fb4214c8c54fc7442f36d3682f59aebaf09358a4431835b30efb29d52cf9e1e91826040518082815260200191505060405180910390a23373ffffffffffffffffffffffffffffffffffffffff166108fc829081150290604051600060405180830381858888f19350505050158015610786573d6000803e3d6000fd5b50505050565b6000809054906101000a900473ffffffffffffffffffffffffffffffffffffffff1673ffffffffffffffffffffffffffffffffffffffff163373ffffffffffffffffffffffffffffffffffffffff16141515610850576040517f08c379a000000000000000000000000000000000000000000000000000000000815260040180806020018281038252601d8152602001807f52657374726963746564206163636573732c206f776e6572206f6e6c7900000081525060200191505060405180910390fd5b600060149054906101000a900460ff16151581151514151515610901576040517f08c379a00000000000000000000000000000000000000000000000000000000081526004018080602001828103825260218152602001807f526564756e64616e7420726571756573742c206e6f206368616e6765206d616481526020017f650000000000000000000000000000000000000000000000000000000000000081525060400191505060405180910390fd5b80600060146101000a81548160ff0219169083151502179055507fbd37f1914147a7d43b91adc31da71af05a08f0458e1e8431ef775d08553b8233813360405180831515151581526020018273ffffffffffffffffffffffffffffffffffffffff1673ffffffffffffffffffffffffffffffffffffffff1681526020019250505060405180910390a15056fea165627a7a72305820b2697aead05e9b0e517755b69440b56181eda84cb8e79bb576be2e1ca08c2ad10029",
  "source": "pragma solidity ^0.5.0;\n\nimport \"./Pausable.sol\";\n\ncontract Remittance is Pausable {\n\n    mapping(address => uint) public balances;\n    address remittanceAddress;\n    bytes32 keyHash;\n\n    event LogRemittanceCreated(address sender, uint amount, address receiver);\n    event LogWithdrawal(address indexed receiver, uint amount);\n    event LogKillExecuted(address owner, uint refund);\n    \n    constructor (uint remittanceKey, uint recipientKey, address _remittanceAddress) \n        public payable onlyOwner() {\n        require(_remittanceAddress != address(0), \"Invalid address\");\n        remittanceAddress = _remittanceAddress;\n        keyHash = keccak256(abi.encodePacked(remittanceKey, recipientKey, _remittanceAddress, msg.value));\n        balances[remittanceAddress] = msg.value;\n        emit LogRemittanceCreated(msg.sender, msg.value, remittanceAddress);\n    }\n    \n    function withdrawFunds (uint remittanceKey, uint recipientKey) public notPaused() {\n        require(keccak256(abi.encodePacked(remittanceKey, recipientKey, msg.sender, balances[msg.sender])) == keyHash, \"Access denied\"); \n        uint amountDue = balances[msg.sender];\n        require(amountDue > 0, \"Insufficient funds\");\n        balances[msg.sender] = 0;\n        emit LogWithdrawal(msg.sender, amountDue);\n        msg.sender.transfer(amountDue);\n    }\n\n    function kill () public onlyOwner {\n        uint refund = balances[remittanceAddress];\n        require(refund > 0, \"No funds available\");\n        balances[remittanceAddress] = 0;\n        emit LogKillExecuted(msg.sender, refund);\n        msg.sender.transfer(refund);\n    }\n}",
  "sourcePath": "/home/vagrant/DAPPS/Remittance/contracts/Remittance.sol",
  "compiler": {
    "name": "solc",
    "version": "0.5.0+commit.1d4f565a.Emscripten.clang"
  },
  "schemaVersion": "3.0.3",
  "updatedAt": "2019-05-01T06:28:03.333Z",
  "devdoc": {
    "methods": {}
  },
  "userdoc": {
    "methods": {}
  }
}